{
  "_format": "hh-sol-artifact-1",
  "contractName": "Messenger",
  "sourceName": "contracts/Messenger.sol",
  "abi": [
    {
      "inputs": [],
      "stateMutability": "nonpayable",
      "type": "constructor"
    },
    {
      "inputs": [
        {
          "internalType": "address",
          "name": "owner",
          "type": "address"
        }
      ],
      "name": "OwnableInvalidOwner",
      "type": "error"
    },
    {
      "inputs": [
        {
          "internalType": "address",
          "name": "account",
          "type": "address"
        }
      ],
      "name": "OwnableUnauthorizedAccount",
      "type": "error"
    },
    {
      "anonymous": false,
      "inputs": [
        {
          "indexed": true,
          "internalType": "address",
          "name": "from",
          "type": "address"
        },
        {
          "indexed": true,
          "internalType": "address",
          "name": "to",
          "type": "address"
        }
      ],
      "name": "MessageSent",
      "type": "event"
    },
    {
      "anonymous": false,
      "inputs": [
        {
          "indexed": true,
          "internalType": "address",
          "name": "previousOwner",
          "type": "address"
        },
        {
          "indexed": true,
          "internalType": "address",
          "name": "newOwner",
          "type": "address"
        }
      ],
      "name": "OwnershipTransferred",
      "type": "event"
    },
    {
      "inputs": [
        {
          "internalType": "address",
          "name": "pubkey",
          "type": "address"
        }
      ],
      "name": "checkUserExists",
      "outputs": [
        {
          "internalType": "bool",
          "name": "exists",
          "type": "bool"
        }
      ],
      "stateMutability": "view",
      "type": "function"
    },
    {
      "inputs": [
        {
          "internalType": "address",
          "name": "friendKey",
          "type": "address"
        }
      ],
      "name": "getMessages",
      "outputs": [
        {
          "components": [
            {
              "internalType": "address",
              "name": "sender",
              "type": "address"
            },
            {
              "internalType": "uint256",
              "name": "timestamp",
              "type": "uint256"
            },
            {
              "internalType": "string",
              "name": "message",
              "type": "string"
            }
          ],
          "internalType": "struct Message[]",
          "name": "messages",
          "type": "tuple[]"
        }
      ],
      "stateMutability": "view",
      "type": "function"
    },
    {
      "inputs": [],
      "name": "owner",
      "outputs": [
        {
          "internalType": "address",
          "name": "",
          "type": "address"
        }
      ],
      "stateMutability": "view",
      "type": "function"
    },
    {
      "inputs": [],
      "name": "renounceOwnership",
      "outputs": [],
      "stateMutability": "nonpayable",
      "type": "function"
    },
    {
      "inputs": [
        {
          "internalType": "address",
          "name": "to",
          "type": "address"
        },
        {
          "internalType": "string",
          "name": "_msg",
          "type": "string"
        }
      ],
      "name": "sendMessage",
      "outputs": [],
      "stateMutability": "nonpayable",
      "type": "function"
    },
    {
      "inputs": [
        {
          "internalType": "address",
          "name": "newOwner",
          "type": "address"
        }
      ],
      "name": "transferOwnership",
      "outputs": [],
      "stateMutability": "nonpayable",
      "type": "function"
    }
  ],
  "bytecode": "0x608060405234801561001057600080fd5b5033600073ffffffffffffffffffffffffffffffffffffffff168173ffffffffffffffffffffffffffffffffffffffff16036100845760006040517f1e4fbdf700000000000000000000000000000000000000000000000000000000815260040161007b919061019e565b60405180910390fd5b6100938161009960201b60201c565b506101b9565b60008060009054906101000a900473ffffffffffffffffffffffffffffffffffffffff169050816000806101000a81548173ffffffffffffffffffffffffffffffffffffffff021916908373ffffffffffffffffffffffffffffffffffffffff1602179055508173ffffffffffffffffffffffffffffffffffffffff168173ffffffffffffffffffffffffffffffffffffffff167f8be0079c531659141344cd1fd0a4f28419497f9722a3daafe3b4186f6b6457e060405160405180910390a35050565b600073ffffffffffffffffffffffffffffffffffffffff82169050919050565b60006101888261015d565b9050919050565b6101988161017d565b82525050565b60006020820190506101b3600083018461018f565b92915050565b610ef9806101c86000396000f3fe608060405234801561001057600080fd5b50600436106100625760003560e01c8063133f50f514610067578063715018a6146100975780638da5cb5b146100a1578063b2f71322146100bf578063de6f24bb146100ef578063f2fde38b1461010b575b600080fd5b610081600480360381019061007c9190610767565b610127565b60405161008e91906107af565b60405180910390f35b61009f610181565b005b6100a9610195565b6040516100b691906107d9565b60405180910390f35b6100d960048036038101906100d49190610767565b6101be565b6040516100e691906109be565b60405180910390f35b61010960048036038101906101049190610b15565b610345565b005b61012560048036038101906101209190610767565b61048e565b005b600080600160008473ffffffffffffffffffffffffffffffffffffffff1673ffffffffffffffffffffffffffffffffffffffff168152602001908152602001600020600001805461017790610ba0565b9050119050919050565b610189610514565b610193600061059b565b565b60008060009054906101000a900473ffffffffffffffffffffffffffffffffffffffff16905090565b606060006101e0739cfb7df745c81da84489e1d7f2408989159f69908461065f565b905060026000828152602001908152602001600020805480602002602001604051908101604052809291908181526020016000905b8282101561033957838290600052602060002090600302016040518060600160405290816000820160009054906101000a900473ffffffffffffffffffffffffffffffffffffffff1673ffffffffffffffffffffffffffffffffffffffff1673ffffffffffffffffffffffffffffffffffffffff168152602001600182015481526020016002820180546102a890610ba0565b80601f01602080910402602001604051908101604052809291908181526020018280546102d490610ba0565b80156103215780601f106102f657610100808354040283529160200191610321565b820191906000526020600020905b81548152906001019060200180831161030457829003601f168201915b50505050508152505081526020019060010190610215565b50505050915050919050565b600060405180606001604052803373ffffffffffffffffffffffffffffffffffffffff1681526020014281526020018381525090506000610386338561065f565b90506002600082815260200190815260200160002082908060018154018082558091505060019003906000526020600020906003020160009091909190915060008201518160000160006101000a81548173ffffffffffffffffffffffffffffffffffffffff021916908373ffffffffffffffffffffffffffffffffffffffff16021790555060208201518160010155604082015181600201908161042b9190610d7d565b5050508373ffffffffffffffffffffffffffffffffffffffff163373ffffffffffffffffffffffffffffffffffffffff167f921d068ef716f8cffdc14d917b9e3b77c957cd11d308c2c4f92732cc0190f86160405160405180910390a350505050565b610496610514565b600073ffffffffffffffffffffffffffffffffffffffff168173ffffffffffffffffffffffffffffffffffffffff16036105085760006040517f1e4fbdf70000000000000000000000000000000000000000000000000000000081526004016104ff91906107d9565b60405180910390fd5b6105118161059b565b50565b61051c6106ed565b73ffffffffffffffffffffffffffffffffffffffff1661053a610195565b73ffffffffffffffffffffffffffffffffffffffff16146105995761055d6106ed565b6040517f118cdaa700000000000000000000000000000000000000000000000000000000815260040161059091906107d9565b60405180910390fd5b565b60008060009054906101000a900473ffffffffffffffffffffffffffffffffffffffff169050816000806101000a81548173ffffffffffffffffffffffffffffffffffffffff021916908373ffffffffffffffffffffffffffffffffffffffff1602179055508173ffffffffffffffffffffffffffffffffffffffff168173ffffffffffffffffffffffffffffffffffffffff167f8be0079c531659141344cd1fd0a4f28419497f9722a3daafe3b4186f6b6457e060405160405180910390a35050565b60008173ffffffffffffffffffffffffffffffffffffffff168373ffffffffffffffffffffffffffffffffffffffff16106106bb5781836040516020016106a7929190610e97565b6040516020818303038152906040526106de565b82826040516020016106ce929190610e97565b6040516020818303038152906040525b80519060200120905092915050565b600033905090565b6000604051905090565b600080fd5b600080fd5b600073ffffffffffffffffffffffffffffffffffffffff82169050919050565b600061073482610709565b9050919050565b61074481610729565b811461074f57600080fd5b50565b6000813590506107618161073b565b92915050565b60006020828403121561077d5761077c6106ff565b5b600061078b84828501610752565b91505092915050565b60008115159050919050565b6107a981610794565b82525050565b60006020820190506107c460008301846107a0565b92915050565b6107d381610729565b82525050565b60006020820190506107ee60008301846107ca565b92915050565b600081519050919050565b600082825260208201905092915050565b6000819050602082019050919050565b61082981610729565b82525050565b6000819050919050565b6108428161082f565b82525050565b600081519050919050565b600082825260208201905092915050565b60005b83811015610882578082015181840152602081019050610867565b60008484015250505050565b6000601f19601f8301169050919050565b60006108aa82610848565b6108b48185610853565b93506108c4818560208601610864565b6108cd8161088e565b840191505092915050565b60006060830160008301516108f06000860182610820565b5060208301516109036020860182610839565b506040830151848203604086015261091b828261089f565b9150508091505092915050565b600061093483836108d8565b905092915050565b6000602082019050919050565b6000610954826107f4565b61095e81856107ff565b93508360208202850161097085610810565b8060005b858110156109ac578484038952815161098d8582610928565b94506109988361093c565b925060208a01995050600181019050610974565b50829750879550505050505092915050565b600060208201905081810360008301526109d88184610949565b905092915050565b600080fd5b600080fd5b7f4e487b7100000000000000000000000000000000000000000000000000000000600052604160045260246000fd5b610a228261088e565b810181811067ffffffffffffffff82111715610a4157610a406109ea565b5b80604052505050565b6000610a546106f5565b9050610a608282610a19565b919050565b600067ffffffffffffffff821115610a8057610a7f6109ea565b5b610a898261088e565b9050602081019050919050565b82818337600083830152505050565b6000610ab8610ab384610a65565b610a4a565b905082815260208101848484011115610ad457610ad36109e5565b5b610adf848285610a96565b509392505050565b600082601f830112610afc57610afb6109e0565b5b8135610b0c848260208601610aa5565b91505092915050565b60008060408385031215610b2c57610b2b6106ff565b5b6000610b3a85828601610752565b925050602083013567ffffffffffffffff811115610b5b57610b5a610704565b5b610b6785828601610ae7565b9150509250929050565b7f4e487b7100000000000000000000000000000000000000000000000000000000600052602260045260246000fd5b60006002820490506001821680610bb857607f821691505b602082108103610bcb57610bca610b71565b5b50919050565b60008190508160005260206000209050919050565b60006020601f8301049050919050565b600082821b905092915050565b600060088302610c337fffffffffffffffffffffffffffffffffffffffffffffffffffffffffffffffff82610bf6565b610c3d8683610bf6565b95508019841693508086168417925050509392505050565b6000819050919050565b6000610c7a610c75610c708461082f565b610c55565b61082f565b9050919050565b6000819050919050565b610c9483610c5f565b610ca8610ca082610c81565b848454610c03565b825550505050565b600090565b610cbd610cb0565b610cc8818484610c8b565b505050565b5b81811015610cec57610ce1600082610cb5565b600181019050610cce565b5050565b601f821115610d3157610d0281610bd1565b610d0b84610be6565b81016020851015610d1a578190505b610d2e610d2685610be6565b830182610ccd565b50505b505050565b600082821c905092915050565b6000610d5460001984600802610d36565b1980831691505092915050565b6000610d6d8383610d43565b9150826002028217905092915050565b610d8682610848565b67ffffffffffffffff811115610d9f57610d9e6109ea565b5b610da98254610ba0565b610db4828285610cf0565b600060209050601f831160018114610de75760008415610dd5578287015190505b610ddf8582610d61565b865550610e47565b601f198416610df586610bd1565b60005b82811015610e1d57848901518255600182019150602085019450602081019050610df8565b86831015610e3a5784890151610e36601f891682610d43565b8355505b6001600288020188555050505b505050505050565b60008160601b9050919050565b6000610e6782610e4f565b9050919050565b6000610e7982610e5c565b9050919050565b610e91610e8c82610729565b610e6e565b82525050565b6000610ea38285610e80565b601482019150610eb38284610e80565b601482019150819050939250505056fea2646970667358221220075c3f7da8f1c93aebd84d869057417d6bbfff92241569d0700811c8b753c0dd64736f6c63430008140033",
  "linkReferences": {},
  "deployedLinkReferences": {}
}