{
  "_format": "hh-sol-artifact-1",
  "contractName": "Messenger",
  "sourceName": "contracts/Messenger.sol",
  "abi": [
    {
      "inputs": [],
      "stateMutability": "nonpayable",
      "type": "constructor"
    },
    {
      "anonymous": false,
      "inputs": [
        {
          "indexed": true,
          "internalType": "address",
          "name": "_from",
          "type": "address"
        },
        {
          "indexed": true,
          "internalType": "address",
          "name": "_to",
          "type": "address"
        }
      ],
      "name": "MessageSent",
      "type": "event"
    },
    {
      "inputs": [],
      "name": "destroy",
      "outputs": [],
      "stateMutability": "nonpayable",
      "type": "function"
    },
    {
      "inputs": [],
      "name": "getMessages",
      "outputs": [
        {
          "components": [
            {
              "internalType": "address",
              "name": "from",
              "type": "address"
            },
            {
              "internalType": "string",
              "name": "text",
              "type": "string"
            }
          ],
          "internalType": "struct Message[]",
          "name": "",
          "type": "tuple[]"
        }
      ],
      "stateMutability": "view",
      "type": "function"
    },
    {
      "inputs": [],
      "name": "getOwner",
      "outputs": [
        {
          "internalType": "address",
          "name": "",
          "type": "address"
        }
      ],
      "stateMutability": "view",
      "type": "function"
    },
    {
      "inputs": [
        {
          "internalType": "address",
          "name": "",
          "type": "address"
        },
        {
          "internalType": "uint256",
          "name": "",
          "type": "uint256"
        }
      ],
      "name": "messages",
      "outputs": [
        {
          "internalType": "address",
          "name": "from",
          "type": "address"
        },
        {
          "internalType": "string",
          "name": "text",
          "type": "string"
        }
      ],
      "stateMutability": "view",
      "type": "function"
    },
    {
      "inputs": [
        {
          "internalType": "address",
          "name": "_to",
          "type": "address"
        },
        {
          "internalType": "string",
          "name": "_text",
          "type": "string"
        }
      ],
      "name": "sendMessage",
      "outputs": [],
      "stateMutability": "nonpayable",
      "type": "function"
    }
  ],
  "bytecode": "0x608060405234801561001057600080fd5b50336000806101000a81548173ffffffffffffffffffffffffffffffffffffffff021916908373ffffffffffffffffffffffffffffffffffffffff160217905550610dff806100606000396000f3fe608060405234801561001057600080fd5b50600436106100575760003560e01c80635ff6cbf31461005c57806383197ef01461007a578063893d20e814610084578063c45d9bea146100a2578063de6f24bb146100d3575b600080fd5b6100646100ef565b6040516100719190610772565b60405180910390f35b610082610273565b005b61008c61033a565b60405161009991906107a3565b60405180910390f35b6100bc60048036038101906100b79190610834565b610363565b6040516100ca9291906108be565b60405180910390f35b6100ed60048036038101906100e89190610a23565b61044c565b005b6060600160003373ffffffffffffffffffffffffffffffffffffffff1673ffffffffffffffffffffffffffffffffffffffff168152602001908152602001600020805480602002602001604051908101604052809291908181526020016000905b8282101561026a57838290600052602060002090600202016040518060400160405290816000820160009054906101000a900473ffffffffffffffffffffffffffffffffffffffff1673ffffffffffffffffffffffffffffffffffffffff1673ffffffffffffffffffffffffffffffffffffffff1681526020016001820180546101d990610aae565b80601f016020809104026020016040519081016040528092919081815260200182805461020590610aae565b80156102525780601f1061022757610100808354040283529160200191610252565b820191906000526020600020905b81548152906001019060200180831161023557829003601f168201915b50505050508152505081526020019060010190610150565b50505050905090565b60008054906101000a900473ffffffffffffffffffffffffffffffffffffffff1673ffffffffffffffffffffffffffffffffffffffff163373ffffffffffffffffffffffffffffffffffffffff1614610301576040517f08c379a00000000000000000000000000000000000000000000000000000000081526004016102f890610b2b565b60405180910390fd5b60008054906101000a900473ffffffffffffffffffffffffffffffffffffffff1673ffffffffffffffffffffffffffffffffffffffff16ff5b60008060009054906101000a900473ffffffffffffffffffffffffffffffffffffffff16905090565b6001602052816000526040600020818154811061037f57600080fd5b9060005260206000209060020201600091509150508060000160009054906101000a900473ffffffffffffffffffffffffffffffffffffffff16908060010180546103c990610aae565b80601f01602080910402602001604051908101604052809291908181526020018280546103f590610aae565b80156104425780601f1061041757610100808354040283529160200191610442565b820191906000526020600020905b81548152906001019060200180831161042557829003601f168201915b5050505050905082565b600060405180604001604052803373ffffffffffffffffffffffffffffffffffffffff168152602001838152509050600160008473ffffffffffffffffffffffffffffffffffffffff1673ffffffffffffffffffffffffffffffffffffffff16815260200190815260200160002081908060018154018082558091505060019003906000526020600020906002020160009091909190915060008201518160000160006101000a81548173ffffffffffffffffffffffffffffffffffffffff021916908373ffffffffffffffffffffffffffffffffffffffff16021790555060208201518160010190816105409190610cf7565b5050508273ffffffffffffffffffffffffffffffffffffffff163373ffffffffffffffffffffffffffffffffffffffff167f921d068ef716f8cffdc14d917b9e3b77c957cd11d308c2c4f92732cc0190f86160405160405180910390a3505050565b600081519050919050565b600082825260208201905092915050565b6000819050602082019050919050565b600073ffffffffffffffffffffffffffffffffffffffff82169050919050565b60006105f9826105ce565b9050919050565b610609816105ee565b82525050565b600081519050919050565b600082825260208201905092915050565b60005b8381101561064957808201518184015260208101905061062e565b60008484015250505050565b6000601f19601f8301169050919050565b60006106718261060f565b61067b818561061a565b935061068b81856020860161062b565b61069481610655565b840191505092915050565b60006040830160008301516106b76000860182610600565b50602083015184820360208601526106cf8282610666565b9150508091505092915050565b60006106e8838361069f565b905092915050565b6000602082019050919050565b6000610708826105a2565b61071281856105ad565b935083602082028501610724856105be565b8060005b85811015610760578484038952815161074185826106dc565b945061074c836106f0565b925060208a01995050600181019050610728565b50829750879550505050505092915050565b6000602082019050818103600083015261078c81846106fd565b905092915050565b61079d816105ee565b82525050565b60006020820190506107b86000830184610794565b92915050565b6000604051905090565b600080fd5b600080fd5b6107db816105ee565b81146107e657600080fd5b50565b6000813590506107f8816107d2565b92915050565b6000819050919050565b610811816107fe565b811461081c57600080fd5b50565b60008135905061082e81610808565b92915050565b6000806040838503121561084b5761084a6107c8565b5b6000610859858286016107e9565b925050602061086a8582860161081f565b9150509250929050565b600082825260208201905092915050565b60006108908261060f565b61089a8185610874565b93506108aa81856020860161062b565b6108b381610655565b840191505092915050565b60006040820190506108d36000830185610794565b81810360208301526108e58184610885565b90509392505050565b600080fd5b600080fd5b7f4e487b7100000000000000000000000000000000000000000000000000000000600052604160045260246000fd5b61093082610655565b810181811067ffffffffffffffff8211171561094f5761094e6108f8565b5b80604052505050565b60006109626107be565b905061096e8282610927565b919050565b600067ffffffffffffffff82111561098e5761098d6108f8565b5b61099782610655565b9050602081019050919050565b82818337600083830152505050565b60006109c66109c184610973565b610958565b9050828152602081018484840111156109e2576109e16108f3565b5b6109ed8482856109a4565b509392505050565b600082601f830112610a0a57610a096108ee565b5b8135610a1a8482602086016109b3565b91505092915050565b60008060408385031215610a3a57610a396107c8565b5b6000610a48858286016107e9565b925050602083013567ffffffffffffffff811115610a6957610a686107cd565b5b610a75858286016109f5565b9150509250929050565b7f4e487b7100000000000000000000000000000000000000000000000000000000600052602260045260246000fd5b60006002820490506001821680610ac657607f821691505b602082108103610ad957610ad8610a7f565b5b50919050565b7f63616c6c6572206d757374206265206f776e6572000000000000000000000000600082015250565b6000610b15601483610874565b9150610b2082610adf565b602082019050919050565b60006020820190508181036000830152610b4481610b08565b9050919050565b60008190508160005260206000209050919050565b60006020601f8301049050919050565b600082821b905092915050565b600060088302610bad7fffffffffffffffffffffffffffffffffffffffffffffffffffffffffffffffff82610b70565b610bb78683610b70565b95508019841693508086168417925050509392505050565b6000819050919050565b6000610bf4610bef610bea846107fe565b610bcf565b6107fe565b9050919050565b6000819050919050565b610c0e83610bd9565b610c22610c1a82610bfb565b848454610b7d565b825550505050565b600090565b610c37610c2a565b610c42818484610c05565b505050565b5b81811015610c6657610c5b600082610c2f565b600181019050610c48565b5050565b601f821115610cab57610c7c81610b4b565b610c8584610b60565b81016020851015610c94578190505b610ca8610ca085610b60565b830182610c47565b50505b505050565b600082821c905092915050565b6000610cce60001984600802610cb0565b1980831691505092915050565b6000610ce78383610cbd565b9150826002028217905092915050565b610d008261060f565b67ffffffffffffffff811115610d1957610d186108f8565b5b610d238254610aae565b610d2e828285610c6a565b600060209050601f831160018114610d615760008415610d4f578287015190505b610d598582610cdb565b865550610dc1565b601f198416610d6f86610b4b565b60005b82811015610d9757848901518255600182019150602085019450602081019050610d72565b86831015610db45784890151610db0601f891682610cbd565b8355505b6001600288020188555050505b50505050505056fea2646970667358221220e272bbaaf123b1e1dcef9afca69ca55dccafce9fa7dfb8a0dc9d024d2eaa056164736f6c63430008110033",
  "linkReferences": {},
  "deployedLinkReferences": {}
}