{
  "_format": "hh-sol-artifact-1",
  "contractName": "Messenger",
  "sourceName": "contracts/Messenger.sol",
  "abi": [
    {
      "inputs": [],
      "stateMutability": "nonpayable",
      "type": "constructor"
    },
    {
      "inputs": [
        {
          "internalType": "address",
          "name": "owner",
          "type": "address"
        }
      ],
      "name": "OwnableInvalidOwner",
      "type": "error"
    },
    {
      "inputs": [
        {
          "internalType": "address",
          "name": "account",
          "type": "address"
        }
      ],
      "name": "OwnableUnauthorizedAccount",
      "type": "error"
    },
    {
      "anonymous": false,
      "inputs": [
        {
          "indexed": true,
          "internalType": "address",
          "name": "from",
          "type": "address"
        },
        {
          "indexed": true,
          "internalType": "address",
          "name": "to",
          "type": "address"
        }
      ],
      "name": "MessageSent",
      "type": "event"
    },
    {
      "anonymous": false,
      "inputs": [
        {
          "indexed": true,
          "internalType": "address",
          "name": "previousOwner",
          "type": "address"
        },
        {
          "indexed": true,
          "internalType": "address",
          "name": "newOwner",
          "type": "address"
        }
      ],
      "name": "OwnershipTransferred",
      "type": "event"
    },
    {
      "inputs": [
        {
          "internalType": "address",
          "name": "friend_key",
          "type": "address"
        }
      ],
      "name": "addFriend",
      "outputs": [],
      "stateMutability": "nonpayable",
      "type": "function"
    },
    {
      "inputs": [
        {
          "internalType": "address",
          "name": "pubkey",
          "type": "address"
        }
      ],
      "name": "checkUserExists",
      "outputs": [
        {
          "internalType": "bool",
          "name": "exists",
          "type": "bool"
        }
      ],
      "stateMutability": "view",
      "type": "function"
    },
    {
      "inputs": [
        {
          "internalType": "string",
          "name": "username",
          "type": "string"
        }
      ],
      "name": "createAccount",
      "outputs": [],
      "stateMutability": "nonpayable",
      "type": "function"
    },
    {
      "inputs": [],
      "name": "getFriends",
      "outputs": [
        {
          "internalType": "string",
          "name": "username",
          "type": "string"
        },
        {
          "internalType": "string",
          "name": "pubkey",
          "type": "string"
        }
      ],
      "stateMutability": "view",
      "type": "function"
    },
    {
      "inputs": [
        {
          "internalType": "address",
          "name": "friendKey",
          "type": "address"
        }
      ],
      "name": "getMessages",
      "outputs": [
        {
          "components": [
            {
              "internalType": "address",
              "name": "sender",
              "type": "address"
            },
            {
              "internalType": "uint256",
              "name": "timestamp",
              "type": "uint256"
            },
            {
              "internalType": "string",
              "name": "message",
              "type": "string"
            }
          ],
          "internalType": "struct Message[]",
          "name": "messages",
          "type": "tuple[]"
        }
      ],
      "stateMutability": "view",
      "type": "function"
    },
    {
      "inputs": [],
      "name": "owner",
      "outputs": [
        {
          "internalType": "address",
          "name": "",
          "type": "address"
        }
      ],
      "stateMutability": "view",
      "type": "function"
    },
    {
      "inputs": [],
      "name": "renounceOwnership",
      "outputs": [],
      "stateMutability": "nonpayable",
      "type": "function"
    },
    {
      "inputs": [
        {
          "internalType": "address",
          "name": "_friend",
          "type": "address"
        },
        {
          "internalType": "string",
          "name": "_msg",
          "type": "string"
        }
      ],
      "name": "sendMessage",
      "outputs": [],
      "stateMutability": "nonpayable",
      "type": "function"
    },
    {
      "inputs": [
        {
          "internalType": "address",
          "name": "newOwner",
          "type": "address"
        }
      ],
      "name": "transferOwnership",
      "outputs": [],
      "stateMutability": "nonpayable",
      "type": "function"
    }
  ],
  "bytecode": "0x60806040523480156200001157600080fd5b5033600073ffffffffffffffffffffffffffffffffffffffff168173ffffffffffffffffffffffffffffffffffffffff1603620000885760006040517f1e4fbdf70000000000000000000000000000000000000000000000000000000081526004016200007f9190620001a9565b60405180910390fd5b6200009981620000a060201b60201c565b50620001c6565b60008060009054906101000a900473ffffffffffffffffffffffffffffffffffffffff169050816000806101000a81548173ffffffffffffffffffffffffffffffffffffffff021916908373ffffffffffffffffffffffffffffffffffffffff1602179055508173ffffffffffffffffffffffffffffffffffffffff168173ffffffffffffffffffffffffffffffffffffffff167f8be0079c531659141344cd1fd0a4f28419497f9722a3daafe3b4186f6b6457e060405160405180910390a35050565b600073ffffffffffffffffffffffffffffffffffffffff82169050919050565b6000620001918262000164565b9050919050565b620001a38162000184565b82525050565b6000602082019050620001c0600083018462000198565b92915050565b6116a880620001d66000396000f3fe608060405234801561001057600080fd5b50600436106100935760003560e01c80638da5cb5b116100665780638da5cb5b1461010d578063b2f713221461012b578063d7a1cfe11461015b578063de6f24bb14610177578063f2fde38b1461019357610093565b8063133f50f5146100985780631f8f7270146100c8578063298daf5b146100e7578063715018a614610103575b600080fd5b6100b260048036038101906100ad9190610c0a565b6101af565b6040516100bf9190610c52565b60405180910390f35b6100d0610209565b6040516100de929190610cfd565b60405180910390f35b61010160048036038101906100fc9190610e69565b610280565b005b61010b610360565b005b610115610374565b6040516101229190610ec1565b60405180910390f35b61014560048036038101906101409190610c0a565b61039d565b6040516101529190611060565b60405180910390f35b61017560048036038101906101709190610c0a565b610510565b005b610191600480360381019061018c9190611082565b61061a565b005b6101ad60048036038101906101a89190610c0a565b610763565b005b600080600160008473ffffffffffffffffffffffffffffffffffffffff1673ffffffffffffffffffffffffffffffffffffffff16815260200190815260200160002060000180546101ff9061110d565b9050119050919050565b6060806040518060400160405280600381526020017f68656a00000000000000000000000000000000000000000000000000000000008152506040518060400160405280600281526020017f4453000000000000000000000000000000000000000000000000000000000000815250915091509091565b610289336101af565b156102c9576040517f08c379a00000000000000000000000000000000000000000000000000000000081526004016102c09061118a565b60405180910390fd5b600081511161030d576040517f08c379a0000000000000000000000000000000000000000000000000000000008152600401610304906111f6565b60405180910390fd5b80600160003373ffffffffffffffffffffffffffffffffffffffff1673ffffffffffffffffffffffffffffffffffffffff168152602001908152602001600020600001908161035c91906113c2565b5050565b6103686107e9565b6103726000610870565b565b60008060009054906101000a900473ffffffffffffffffffffffffffffffffffffffff16905090565b606060006103ab3384610934565b905060026000828152602001908152602001600020805480602002602001604051908101604052809291908181526020016000905b8282101561050457838290600052602060002090600302016040518060600160405290816000820160009054906101000a900473ffffffffffffffffffffffffffffffffffffffff1673ffffffffffffffffffffffffffffffffffffffff1673ffffffffffffffffffffffffffffffffffffffff168152602001600182015481526020016002820180546104739061110d565b80601f016020809104026020016040519081016040528092919081815260200182805461049f9061110d565b80156104ec5780601f106104c1576101008083540402835291602001916104ec565b820191906000526020600020905b8154815290600101906020018083116104cf57829003601f168201915b505050505081525050815260200190600101906103e0565b50505050915050919050565b610519336101af565b610558576040517f08c379a000000000000000000000000000000000000000000000000000000000815260040161054f906114e0565b60405180910390fd5b610561816101af565b6105a0576040517f08c379a00000000000000000000000000000000000000000000000000000000081526004016105979061154c565b60405180910390fd5b8073ffffffffffffffffffffffffffffffffffffffff163373ffffffffffffffffffffffffffffffffffffffff160361060e576040517f08c379a0000000000000000000000000000000000000000000000000000000008152600401610605906115de565b60405180910390fd5b610617816109c2565b50565b600060405180606001604052803373ffffffffffffffffffffffffffffffffffffffff168152602001428152602001838152509050600061065b3385610934565b90506002600082815260200190815260200160002082908060018154018082558091505060019003906000526020600020906003020160009091909190915060008201518160000160006101000a81548173ffffffffffffffffffffffffffffffffffffffff021916908373ffffffffffffffffffffffffffffffffffffffff16021790555060208201518160010155604082015181600201908161070091906113c2565b5050508373ffffffffffffffffffffffffffffffffffffffff163373ffffffffffffffffffffffffffffffffffffffff167f921d068ef716f8cffdc14d917b9e3b77c957cd11d308c2c4f92732cc0190f86160405160405180910390a350505050565b61076b6107e9565b600073ffffffffffffffffffffffffffffffffffffffff168173ffffffffffffffffffffffffffffffffffffffff16036107dd5760006040517f1e4fbdf70000000000000000000000000000000000000000000000000000000081526004016107d49190610ec1565b60405180910390fd5b6107e681610870565b50565b6107f1610b90565b73ffffffffffffffffffffffffffffffffffffffff1661080f610374565b73ffffffffffffffffffffffffffffffffffffffff161461086e57610832610b90565b6040517f118cdaa70000000000000000000000000000000000000000000000000000000081526004016108659190610ec1565b60405180910390fd5b565b60008060009054906101000a900473ffffffffffffffffffffffffffffffffffffffff169050816000806101000a81548173ffffffffffffffffffffffffffffffffffffffff021916908373ffffffffffffffffffffffffffffffffffffffff1602179055508173ffffffffffffffffffffffffffffffffffffffff168173ffffffffffffffffffffffffffffffffffffffff167f8be0079c531659141344cd1fd0a4f28419497f9722a3daafe3b4186f6b6457e060405160405180910390a35050565b60008173ffffffffffffffffffffffffffffffffffffffff168373ffffffffffffffffffffffffffffffffffffffff161061099057818360405160200161097c929190611646565b6040516020818303038152906040526109b3565b82826040516020016109a3929190611646565b6040516020818303038152906040525b80519060200120905092915050565b6000600160008373ffffffffffffffffffffffffffffffffffffffff1673ffffffffffffffffffffffffffffffffffffffff1681526020019081526020016000206000018054610a119061110d565b80601f0160208091040260200160405190810160405280929190818152602001828054610a3d9061110d565b8015610a8a5780601f10610a5f57610100808354040283529160200191610a8a565b820191906000526020600020905b815481529060010190602001808311610a6d57829003601f168201915b50505050509050600060405180604001604052808473ffffffffffffffffffffffffffffffffffffffff168152602001838152509050600160003373ffffffffffffffffffffffffffffffffffffffff1673ffffffffffffffffffffffffffffffffffffffff16815260200190815260200160002060010181908060018154018082558091505060019003906000526020600020906002020160009091909190915060008201518160000160006101000a81548173ffffffffffffffffffffffffffffffffffffffff021916908373ffffffffffffffffffffffffffffffffffffffff1602179055506020820151816001019081610b8891906113c2565b505050505050565b600033905090565b6000604051905090565b600080fd5b600080fd5b600073ffffffffffffffffffffffffffffffffffffffff82169050919050565b6000610bd782610bac565b9050919050565b610be781610bcc565b8114610bf257600080fd5b50565b600081359050610c0481610bde565b92915050565b600060208284031215610c2057610c1f610ba2565b5b6000610c2e84828501610bf5565b91505092915050565b60008115159050919050565b610c4c81610c37565b82525050565b6000602082019050610c676000830184610c43565b92915050565b600081519050919050565b600082825260208201905092915050565b60005b83811015610ca7578082015181840152602081019050610c8c565b60008484015250505050565b6000601f19601f8301169050919050565b6000610ccf82610c6d565b610cd98185610c78565b9350610ce9818560208601610c89565b610cf281610cb3565b840191505092915050565b60006040820190508181036000830152610d178185610cc4565b90508181036020830152610d2b8184610cc4565b90509392505050565b600080fd5b600080fd5b7f4e487b7100000000000000000000000000000000000000000000000000000000600052604160045260246000fd5b610d7682610cb3565b810181811067ffffffffffffffff82111715610d9557610d94610d3e565b5b80604052505050565b6000610da8610b98565b9050610db48282610d6d565b919050565b600067ffffffffffffffff821115610dd457610dd3610d3e565b5b610ddd82610cb3565b9050602081019050919050565b82818337600083830152505050565b6000610e0c610e0784610db9565b610d9e565b905082815260208101848484011115610e2857610e27610d39565b5b610e33848285610dea565b509392505050565b600082601f830112610e5057610e4f610d34565b5b8135610e60848260208601610df9565b91505092915050565b600060208284031215610e7f57610e7e610ba2565b5b600082013567ffffffffffffffff811115610e9d57610e9c610ba7565b5b610ea984828501610e3b565b91505092915050565b610ebb81610bcc565b82525050565b6000602082019050610ed66000830184610eb2565b92915050565b600081519050919050565b600082825260208201905092915050565b6000819050602082019050919050565b610f1181610bcc565b82525050565b6000819050919050565b610f2a81610f17565b82525050565b600082825260208201905092915050565b6000610f4c82610c6d565b610f568185610f30565b9350610f66818560208601610c89565b610f6f81610cb3565b840191505092915050565b6000606083016000830151610f926000860182610f08565b506020830151610fa56020860182610f21565b5060408301518482036040860152610fbd8282610f41565b9150508091505092915050565b6000610fd68383610f7a565b905092915050565b6000602082019050919050565b6000610ff682610edc565b6110008185610ee7565b93508360208202850161101285610ef8565b8060005b8581101561104e578484038952815161102f8582610fca565b945061103a83610fde565b925060208a01995050600181019050611016565b50829750879550505050505092915050565b6000602082019050818103600083015261107a8184610feb565b905092915050565b6000806040838503121561109957611098610ba2565b5b60006110a785828601610bf5565b925050602083013567ffffffffffffffff8111156110c8576110c7610ba7565b5b6110d485828601610e3b565b9150509250929050565b7f4e487b7100000000000000000000000000000000000000000000000000000000600052602260045260246000fd5b6000600282049050600182168061112557607f821691505b602082108103611138576111376110de565b5b50919050565b7f5573657220616c72656164792065786973747321000000000000000000000000600082015250565b6000611174601483610c78565b915061117f8261113e565b602082019050919050565b600060208201905081810360008301526111a381611167565b9050919050565b7f557365726e616d652063616e6e6f7420626520656d7074792100000000000000600082015250565b60006111e0601983610c78565b91506111eb826111aa565b602082019050919050565b6000602082019050818103600083015261120f816111d3565b9050919050565b60008190508160005260206000209050919050565b60006020601f8301049050919050565b600082821b905092915050565b6000600883026112787fffffffffffffffffffffffffffffffffffffffffffffffffffffffffffffffff8261123b565b611282868361123b565b95508019841693508086168417925050509392505050565b6000819050919050565b60006112bf6112ba6112b584610f17565b61129a565b610f17565b9050919050565b6000819050919050565b6112d9836112a4565b6112ed6112e5826112c6565b848454611248565b825550505050565b600090565b6113026112f5565b61130d8184846112d0565b505050565b5b81811015611331576113266000826112fa565b600181019050611313565b5050565b601f8211156113765761134781611216565b6113508461122b565b8101602085101561135f578190505b61137361136b8561122b565b830182611312565b50505b505050565b600082821c905092915050565b60006113996000198460080261137b565b1980831691505092915050565b60006113b28383611388565b9150826002028217905092915050565b6113cb82610c6d565b67ffffffffffffffff8111156113e4576113e3610d3e565b5b6113ee825461110d565b6113f9828285611335565b600060209050601f83116001811461142c576000841561141a578287015190505b61142485826113a6565b86555061148c565b601f19841661143a86611216565b60005b828110156114625784890151825560018201915060208501945060208101905061143d565b8683101561147f578489015161147b601f891682611388565b8355505b6001600288020188555050505b505050505050565b7f5573657220646f65736e74206578697374732100000000000000000000000000600082015250565b60006114ca601383610c78565b91506114d582611494565b602082019050919050565b600060208201905081810360008301526114f9816114bd565b9050919050565b7f467269656e64207075626b657920646f65736e74206578697374210000000000600082015250565b6000611536601b83610c78565b915061154182611500565b602082019050919050565b6000602082019050818103600083015261156581611529565b9050919050565b7f55736572732063616e6e6f7420616464207468656d73656c766573206173206660008201527f7269656e64732100000000000000000000000000000000000000000000000000602082015250565b60006115c8602783610c78565b91506115d38261156c565b604082019050919050565b600060208201905081810360008301526115f7816115bb565b9050919050565b60008160601b9050919050565b6000611616826115fe565b9050919050565b60006116288261160b565b9050919050565b61164061163b82610bcc565b61161d565b82525050565b6000611652828561162f565b601482019150611662828461162f565b601482019150819050939250505056fea2646970667358221220b69ce28acd4b102a65d5dbb1a75ebd2ff84b961cde70c70ea34addebaeca38a064736f6c63430008140033",
  "linkReferences": {},
  "deployedLinkReferences": {}
}