{
  "_format": "hh-sol-artifact-1",
  "contractName": "Messenger",
  "sourceName": "contracts/Messenger.sol",
  "abi": [
    {
      "inputs": [],
      "stateMutability": "nonpayable",
      "type": "constructor"
    },
    {
      "inputs": [
        {
          "internalType": "address",
          "name": "owner",
          "type": "address"
        }
      ],
      "name": "OwnableInvalidOwner",
      "type": "error"
    },
    {
      "inputs": [
        {
          "internalType": "address",
          "name": "account",
          "type": "address"
        }
      ],
      "name": "OwnableUnauthorizedAccount",
      "type": "error"
    },
    {
      "anonymous": false,
      "inputs": [
        {
          "indexed": true,
          "internalType": "address",
          "name": "from",
          "type": "address"
        },
        {
          "indexed": true,
          "internalType": "address",
          "name": "to",
          "type": "address"
        }
      ],
      "name": "MessageSent",
      "type": "event"
    },
    {
      "anonymous": false,
      "inputs": [
        {
          "indexed": true,
          "internalType": "address",
          "name": "previousOwner",
          "type": "address"
        },
        {
          "indexed": true,
          "internalType": "address",
          "name": "newOwner",
          "type": "address"
        }
      ],
      "name": "OwnershipTransferred",
      "type": "event"
    },
    {
      "inputs": [
        {
          "internalType": "address",
          "name": "friend_key",
          "type": "address"
        }
      ],
      "name": "addFriend",
      "outputs": [],
      "stateMutability": "nonpayable",
      "type": "function"
    },
    {
      "inputs": [
        {
          "internalType": "address",
          "name": "pubkey",
          "type": "address"
        }
      ],
      "name": "checkUserExists",
      "outputs": [
        {
          "internalType": "bool",
          "name": "exists",
          "type": "bool"
        }
      ],
      "stateMutability": "view",
      "type": "function"
    },
    {
      "inputs": [
        {
          "internalType": "string",
          "name": "username",
          "type": "string"
        }
      ],
      "name": "createAccount",
      "outputs": [],
      "stateMutability": "nonpayable",
      "type": "function"
    },
    {
      "inputs": [],
      "name": "getFriends",
      "outputs": [
        {
          "components": [
            {
              "internalType": "address",
              "name": "pubkey",
              "type": "address"
            },
            {
              "internalType": "string",
              "name": "username",
              "type": "string"
            }
          ],
          "internalType": "struct Friend[]",
          "name": "friends",
          "type": "tuple[]"
        }
      ],
      "stateMutability": "view",
      "type": "function"
    },
    {
      "inputs": [
        {
          "internalType": "address",
          "name": "friendKey",
          "type": "address"
        }
      ],
      "name": "getMessages",
      "outputs": [
        {
          "components": [
            {
              "internalType": "address",
              "name": "sender",
              "type": "address"
            },
            {
              "internalType": "uint256",
              "name": "timestamp",
              "type": "uint256"
            },
            {
              "internalType": "string",
              "name": "message",
              "type": "string"
            }
          ],
          "internalType": "struct Message[]",
          "name": "messages",
          "type": "tuple[]"
        }
      ],
      "stateMutability": "view",
      "type": "function"
    },
    {
      "inputs": [],
      "name": "getUsername",
      "outputs": [
        {
          "internalType": "string",
          "name": "username",
          "type": "string"
        }
      ],
      "stateMutability": "view",
      "type": "function"
    },
    {
      "inputs": [],
      "name": "owner",
      "outputs": [
        {
          "internalType": "address",
          "name": "",
          "type": "address"
        }
      ],
      "stateMutability": "view",
      "type": "function"
    },
    {
      "inputs": [],
      "name": "renounceOwnership",
      "outputs": [],
      "stateMutability": "nonpayable",
      "type": "function"
    },
    {
      "inputs": [
        {
          "internalType": "address",
          "name": "friend_key",
          "type": "address"
        },
        {
          "internalType": "string",
          "name": "_msg",
          "type": "string"
        }
      ],
      "name": "sendMessage",
      "outputs": [],
      "stateMutability": "nonpayable",
      "type": "function"
    },
    {
      "inputs": [
        {
          "internalType": "address",
          "name": "newOwner",
          "type": "address"
        }
      ],
      "name": "transferOwnership",
      "outputs": [],
      "stateMutability": "nonpayable",
      "type": "function"
    }
  ],
  "bytecode": "0x60806040523480156200001157600080fd5b5033600073ffffffffffffffffffffffffffffffffffffffff168173ffffffffffffffffffffffffffffffffffffffff1603620000885760006040517f1e4fbdf70000000000000000000000000000000000000000000000000000000081526004016200007f9190620001a9565b60405180910390fd5b6200009981620000a060201b60201c565b50620001c6565b60008060009054906101000a900473ffffffffffffffffffffffffffffffffffffffff169050816000806101000a81548173ffffffffffffffffffffffffffffffffffffffff021916908373ffffffffffffffffffffffffffffffffffffffff1602179055508173ffffffffffffffffffffffffffffffffffffffff168173ffffffffffffffffffffffffffffffffffffffff167f8be0079c531659141344cd1fd0a4f28419497f9722a3daafe3b4186f6b6457e060405160405180910390a35050565b600073ffffffffffffffffffffffffffffffffffffffff82169050919050565b6000620001918262000164565b9050919050565b620001a38162000184565b82525050565b6000602082019050620001c0600083018462000198565b92915050565b6119be80620001d66000396000f3fe608060405234801561001057600080fd5b506004361061009e5760003560e01c80638da5cb5b116100665780638da5cb5b14610135578063b2f7132214610153578063d7a1cfe114610183578063de6f24bb1461019f578063f2fde38b146101bb5761009e565b8063133f50f5146100a35780631f8f7270146100d3578063298daf5b146100f1578063681f3e6d1461010d578063715018a61461012b575b600080fd5b6100bd60048036038101906100b89190610e14565b6101d7565b6040516100ca9190610e5c565b60405180910390f35b6100db610231565b6040516100e89190611015565b60405180910390f35b61010b6004803603810190610106919061116c565b6103b8565b005b610115610498565b60405161012291906111ff565b60405180910390f35b61013361056a565b005b61013d61057e565b60405161014a9190611230565b60405180910390f35b61016d60048036038101906101689190610e14565b6105a7565b60405161017a9190611376565b60405180910390f35b61019d60048036038101906101989190610e14565b61071a565b005b6101b960048036038101906101b49190611398565b610824565b005b6101d560048036038101906101d09190610e14565b61096d565b005b600080600160008473ffffffffffffffffffffffffffffffffffffffff1673ffffffffffffffffffffffffffffffffffffffff168152602001908152602001600020600001805461022790611423565b9050119050919050565b6060600160003373ffffffffffffffffffffffffffffffffffffffff1673ffffffffffffffffffffffffffffffffffffffff168152602001908152602001600020600101805480602002602001604051908101604052809291908181526020016000905b828210156103af57838290600052602060002090600202016040518060400160405290816000820160009054906101000a900473ffffffffffffffffffffffffffffffffffffffff1673ffffffffffffffffffffffffffffffffffffffff1673ffffffffffffffffffffffffffffffffffffffff16815260200160018201805461031e90611423565b80601f016020809104026020016040519081016040528092919081815260200182805461034a90611423565b80156103975780601f1061036c57610100808354040283529160200191610397565b820191906000526020600020905b81548152906001019060200180831161037a57829003601f168201915b50505050508152505081526020019060010190610295565b50505050905090565b6103c1336101d7565b15610401576040517f08c379a00000000000000000000000000000000000000000000000000000000081526004016103f8906114a0565b60405180910390fd5b6000815111610445576040517f08c379a000000000000000000000000000000000000000000000000000000000815260040161043c9061150c565b60405180910390fd5b80600160003373ffffffffffffffffffffffffffffffffffffffff1673ffffffffffffffffffffffffffffffffffffffff168152602001908152602001600020600001908161049491906116d8565b5050565b6060600160003373ffffffffffffffffffffffffffffffffffffffff1673ffffffffffffffffffffffffffffffffffffffff16815260200190815260200160002060000180546104e790611423565b80601f016020809104026020016040519081016040528092919081815260200182805461051390611423565b80156105605780601f1061053557610100808354040283529160200191610560565b820191906000526020600020905b81548152906001019060200180831161054357829003601f168201915b5050505050905090565b6105726109f3565b61057c6000610a7a565b565b60008060009054906101000a900473ffffffffffffffffffffffffffffffffffffffff16905090565b606060006105b53384610b3e565b905060026000828152602001908152602001600020805480602002602001604051908101604052809291908181526020016000905b8282101561070e57838290600052602060002090600302016040518060600160405290816000820160009054906101000a900473ffffffffffffffffffffffffffffffffffffffff1673ffffffffffffffffffffffffffffffffffffffff1673ffffffffffffffffffffffffffffffffffffffff1681526020016001820154815260200160028201805461067d90611423565b80601f01602080910402602001604051908101604052809291908181526020018280546106a990611423565b80156106f65780601f106106cb576101008083540402835291602001916106f6565b820191906000526020600020905b8154815290600101906020018083116106d957829003601f168201915b505050505081525050815260200190600101906105ea565b50505050915050919050565b610723336101d7565b610762576040517f08c379a0000000000000000000000000000000000000000000000000000000008152600401610759906117f6565b60405180910390fd5b61076b816101d7565b6107aa576040517f08c379a00000000000000000000000000000000000000000000000000000000081526004016107a190611862565b60405180910390fd5b8073ffffffffffffffffffffffffffffffffffffffff163373ffffffffffffffffffffffffffffffffffffffff1603610818576040517f08c379a000000000000000000000000000000000000000000000000000000000815260040161080f906118f4565b60405180910390fd5b61082181610bcc565b50565b600060405180606001604052803373ffffffffffffffffffffffffffffffffffffffff16815260200142815260200183815250905060006108653385610b3e565b90506002600082815260200190815260200160002082908060018154018082558091505060019003906000526020600020906003020160009091909190915060008201518160000160006101000a81548173ffffffffffffffffffffffffffffffffffffffff021916908373ffffffffffffffffffffffffffffffffffffffff16021790555060208201518160010155604082015181600201908161090a91906116d8565b5050508373ffffffffffffffffffffffffffffffffffffffff163373ffffffffffffffffffffffffffffffffffffffff167f921d068ef716f8cffdc14d917b9e3b77c957cd11d308c2c4f92732cc0190f86160405160405180910390a350505050565b6109756109f3565b600073ffffffffffffffffffffffffffffffffffffffff168173ffffffffffffffffffffffffffffffffffffffff16036109e75760006040517f1e4fbdf70000000000000000000000000000000000000000000000000000000081526004016109de9190611230565b60405180910390fd5b6109f081610a7a565b50565b6109fb610d9a565b73ffffffffffffffffffffffffffffffffffffffff16610a1961057e565b73ffffffffffffffffffffffffffffffffffffffff1614610a7857610a3c610d9a565b6040517f118cdaa7000000000000000000000000000000000000000000000000000000008152600401610a6f9190611230565b60405180910390fd5b565b60008060009054906101000a900473ffffffffffffffffffffffffffffffffffffffff169050816000806101000a81548173ffffffffffffffffffffffffffffffffffffffff021916908373ffffffffffffffffffffffffffffffffffffffff1602179055508173ffffffffffffffffffffffffffffffffffffffff168173ffffffffffffffffffffffffffffffffffffffff167f8be0079c531659141344cd1fd0a4f28419497f9722a3daafe3b4186f6b6457e060405160405180910390a35050565b60008173ffffffffffffffffffffffffffffffffffffffff168373ffffffffffffffffffffffffffffffffffffffff1610610b9a578183604051602001610b8692919061195c565b604051602081830303815290604052610bbd565b8282604051602001610bad92919061195c565b6040516020818303038152906040525b80519060200120905092915050565b6000600160008373ffffffffffffffffffffffffffffffffffffffff1673ffffffffffffffffffffffffffffffffffffffff1681526020019081526020016000206000018054610c1b90611423565b80601f0160208091040260200160405190810160405280929190818152602001828054610c4790611423565b8015610c945780601f10610c6957610100808354040283529160200191610c94565b820191906000526020600020905b815481529060010190602001808311610c7757829003601f168201915b50505050509050600060405180604001604052808473ffffffffffffffffffffffffffffffffffffffff168152602001838152509050600160003373ffffffffffffffffffffffffffffffffffffffff1673ffffffffffffffffffffffffffffffffffffffff16815260200190815260200160002060010181908060018154018082558091505060019003906000526020600020906002020160009091909190915060008201518160000160006101000a81548173ffffffffffffffffffffffffffffffffffffffff021916908373ffffffffffffffffffffffffffffffffffffffff1602179055506020820151816001019081610d9291906116d8565b505050505050565b600033905090565b6000604051905090565b600080fd5b600080fd5b600073ffffffffffffffffffffffffffffffffffffffff82169050919050565b6000610de182610db6565b9050919050565b610df181610dd6565b8114610dfc57600080fd5b50565b600081359050610e0e81610de8565b92915050565b600060208284031215610e2a57610e29610dac565b5b6000610e3884828501610dff565b91505092915050565b60008115159050919050565b610e5681610e41565b82525050565b6000602082019050610e716000830184610e4d565b92915050565b600081519050919050565b600082825260208201905092915050565b6000819050602082019050919050565b610eac81610dd6565b82525050565b600081519050919050565b600082825260208201905092915050565b60005b83811015610eec578082015181840152602081019050610ed1565b60008484015250505050565b6000601f19601f8301169050919050565b6000610f1482610eb2565b610f1e8185610ebd565b9350610f2e818560208601610ece565b610f3781610ef8565b840191505092915050565b6000604083016000830151610f5a6000860182610ea3565b5060208301518482036020860152610f728282610f09565b9150508091505092915050565b6000610f8b8383610f42565b905092915050565b6000602082019050919050565b6000610fab82610e77565b610fb58185610e82565b935083602082028501610fc785610e93565b8060005b858110156110035784840389528151610fe48582610f7f565b9450610fef83610f93565b925060208a01995050600181019050610fcb565b50829750879550505050505092915050565b6000602082019050818103600083015261102f8184610fa0565b905092915050565b600080fd5b600080fd5b7f4e487b7100000000000000000000000000000000000000000000000000000000600052604160045260246000fd5b61107982610ef8565b810181811067ffffffffffffffff8211171561109857611097611041565b5b80604052505050565b60006110ab610da2565b90506110b78282611070565b919050565b600067ffffffffffffffff8211156110d7576110d6611041565b5b6110e082610ef8565b9050602081019050919050565b82818337600083830152505050565b600061110f61110a846110bc565b6110a1565b90508281526020810184848401111561112b5761112a61103c565b5b6111368482856110ed565b509392505050565b600082601f83011261115357611152611037565b5b81356111638482602086016110fc565b91505092915050565b60006020828403121561118257611181610dac565b5b600082013567ffffffffffffffff8111156111a05761119f610db1565b5b6111ac8482850161113e565b91505092915050565b600082825260208201905092915050565b60006111d182610eb2565b6111db81856111b5565b93506111eb818560208601610ece565b6111f481610ef8565b840191505092915050565b6000602082019050818103600083015261121981846111c6565b905092915050565b61122a81610dd6565b82525050565b60006020820190506112456000830184611221565b92915050565b600081519050919050565b600082825260208201905092915050565b6000819050602082019050919050565b6000819050919050565b61128a81611277565b82525050565b60006060830160008301516112a86000860182610ea3565b5060208301516112bb6020860182611281565b50604083015184820360408601526112d38282610f09565b9150508091505092915050565b60006112ec8383611290565b905092915050565b6000602082019050919050565b600061130c8261124b565b6113168185611256565b93508360208202850161132885611267565b8060005b85811015611364578484038952815161134585826112e0565b9450611350836112f4565b925060208a0199505060018101905061132c565b50829750879550505050505092915050565b600060208201905081810360008301526113908184611301565b905092915050565b600080604083850312156113af576113ae610dac565b5b60006113bd85828601610dff565b925050602083013567ffffffffffffffff8111156113de576113dd610db1565b5b6113ea8582860161113e565b9150509250929050565b7f4e487b7100000000000000000000000000000000000000000000000000000000600052602260045260246000fd5b6000600282049050600182168061143b57607f821691505b60208210810361144e5761144d6113f4565b5b50919050565b7f5573657220616c72656164792065786973747321000000000000000000000000600082015250565b600061148a6014836111b5565b915061149582611454565b602082019050919050565b600060208201905081810360008301526114b98161147d565b9050919050565b7f557365726e616d652063616e6e6f7420626520656d7074792100000000000000600082015250565b60006114f66019836111b5565b9150611501826114c0565b602082019050919050565b60006020820190508181036000830152611525816114e9565b9050919050565b60008190508160005260206000209050919050565b60006020601f8301049050919050565b600082821b905092915050565b60006008830261158e7fffffffffffffffffffffffffffffffffffffffffffffffffffffffffffffffff82611551565b6115988683611551565b95508019841693508086168417925050509392505050565b6000819050919050565b60006115d56115d06115cb84611277565b6115b0565b611277565b9050919050565b6000819050919050565b6115ef836115ba565b6116036115fb826115dc565b84845461155e565b825550505050565b600090565b61161861160b565b6116238184846115e6565b505050565b5b818110156116475761163c600082611610565b600181019050611629565b5050565b601f82111561168c5761165d8161152c565b61166684611541565b81016020851015611675578190505b61168961168185611541565b830182611628565b50505b505050565b600082821c905092915050565b60006116af60001984600802611691565b1980831691505092915050565b60006116c8838361169e565b9150826002028217905092915050565b6116e182610eb2565b67ffffffffffffffff8111156116fa576116f9611041565b5b6117048254611423565b61170f82828561164b565b600060209050601f8311600181146117425760008415611730578287015190505b61173a85826116bc565b8655506117a2565b601f1984166117508661152c565b60005b8281101561177857848901518255600182019150602085019450602081019050611753565b868310156117955784890151611791601f89168261169e565b8355505b6001600288020188555050505b505050505050565b7f5573657220646f65736e74206578697374732100000000000000000000000000600082015250565b60006117e06013836111b5565b91506117eb826117aa565b602082019050919050565b6000602082019050818103600083015261180f816117d3565b9050919050565b7f467269656e64207075626b657920646f65736e74206578697374210000000000600082015250565b600061184c601b836111b5565b915061185782611816565b602082019050919050565b6000602082019050818103600083015261187b8161183f565b9050919050565b7f55736572732063616e6e6f7420616464207468656d73656c766573206173206660008201527f7269656e64732100000000000000000000000000000000000000000000000000602082015250565b60006118de6027836111b5565b91506118e982611882565b604082019050919050565b6000602082019050818103600083015261190d816118d1565b9050919050565b60008160601b9050919050565b600061192c82611914565b9050919050565b600061193e82611921565b9050919050565b61195661195182610dd6565b611933565b82525050565b60006119688285611945565b6014820191506119788284611945565b601482019150819050939250505056fea264697066735822122000a521f073e75ac9c100b0b1538603cc79e61a98937154e41d87cbf19a24343464736f6c63430008140033",
  "linkReferences": {},
  "deployedLinkReferences": {}
}